:020000040800F2
:100000001007002089010008B3220008BB14000873
:10001000B12200088F0200080B2400080000000035
:10002000000000000000000000000000B7220008EF
:100030009102000800000000B5220008B922000863
:10004000A3010008A3010008A3010008A301000800
:10005000A3010008A3010008A3010008A3010008F0
:10006000A3010008A3010008A3010008A3010008E0
:10007000A3010008A3010008A3010008A3010008D0
:10008000A3010008A3010008A3010008A3010008C0
:10009000A3010008A3010008A3010008A3010008B0
:1000A000A3010008A3010008A3010008A3010008A0
:1000B0001D230008A3010008A3010008A3010008F4
:1000C000A3010008C9140008BD140008A30100081A
:1000D000A3010008A3010008A3010008A301000870
:1000E000A3010008A3010008A301000800F002F822
:1000F00000F03AF80AA090E8000C82448344AAF188
:100100000107DA4501D100F02FF8AFF2090EBAE885
:100110000F0013F0010F18BFFB1A43F0010318473B
:100120002025000040250000103A24BF78C878C17F
:10013000FAD8520724BF30C830C144BF04680C60ED
:10014000704700000023002400250026103A28BF35
:1001500078C1FBD8520728BF30C148BF0B60704739
:100160001FB51FBD10B510BD00F058F81146FFF7C0
:10017000F7FF02F005FA00F076F803B4FFF7F2FF9C
:1001800003BC00F07DF8000009488047094800479B
:10019000FEE7FEE7FEE7FEE7FEE7FEE7FEE7FEE737
:1001A000FEE7FEE704480549054A064B7047000094
:1001B0001B230008ED00000810010020100700209C
:1001C00010030020100300204FF0000200B513467A
:1001D00094469646203922BFA0E80C50A0E80C5067
:1001E000B1F12001BFF4F7AF090728BFA0E80C5018
:1001F00048BF0CC05DF804EB890028BF40F8042B11
:1002000008BF704748BF20F8022B11F0804F18BF7D
:1002100000F8012B7047704770477047754600F033
:100220002BF8AE4605006946534620F00700854688
:1002300018B020B5FFF7B6FFBDE820404FF000062C
:100240004FF000074FF000084FF0000B21F00701BE
:10025000AC46ACE8C009ACE8C009ACE8C009ACE801
:10026000C0098D46704710B50446AFF300802046A4
:10027000BDE81040FFF781BF00487047B000002084
:1002800001491820ABBEFEE7260002007047FEE7DA
:10029000704772B6FEE7000010B590F821100024F8
:1002A000022903D00421816301243DE001680A682A
:1002B00022F00E020A6001680A6822F001020A6058
:1002C0001A4A0168914201D1012121E0174A1432F2
:1002D000914201D110211BE0144A2832914201D1F0
:1002E000891515E0114A3C32914201D189140FE081
:1002F0000E4A5032914202D14FF4803108E00B4A4D
:100300006432914202D14FF4801101E04FF08071CC
:10031000064A083A5160012180F82110002180F836
:100320002010416B01B18847204610BD08000240F3
:1003300090F821007047000070B5044600F004F901
:100340000546601C02D004480078044400F0FCF824
:10035000401BA042FAD370BD000000202DE9F84FE9
:10036000DFF8B8910024A9F1040B23460F2709F107
:10037000040AABF1040EC9E00125A5402A40AA42B7
:100380007DD1674ED1F804C0ACEB0608B44532D03D
:1003900014DCBCF1030F3AD009DCBCF1000F2AD009
:1003A000BCF1010F1CD0BCF1020F31D11DE0BCF13A
:1003B000110F17D0BCF1120F2AD119E0B8F5881F20
:1003C00019D006DCB8F5803F15D0B8F5801F1FD1D5
:1003D00011E0B8F5001F0ED0B8F5041F18D10AE0DF
:1003E000CB6815E0CB681B1D12E0CB6808330FE02B
:1003F000CB680C330CE08B682BB1012B4FF008035A
:1004000003D0456104E0042302E0056100E000231D
:10041000FF2A01D8064601E000F104064FEA8405F0
:1004200001D9A5F12005D6F8008007FA05FC28EAD5
:100430000C0803FA05F548EA0508C6F800804D687F
:10044000ED0062D5374DAE6946F00106AE61AD698B
:1004500024F0030605F001050095334D06EB050C6D
:10046000DCF80850A607360F07FA06F825EA080553
:10047000DFF8B880404503D14FF0000817E044E0B2
:10048000DFF8AC80404502D14FF001080FE0DFF803
:10049000A480404502D14FF0020808E0DFF89880C0
:1004A000404502D14FF0030801E04FF0040808FA7C
:1004B00006F848EA0508CCF808804D68D9F80060CD
:1004C000ED024D4601D5164300E096432E604D687F
:1004D000DAF80060AD02554601D5164300E09643B8
:1004E0002E604D68DBF80060AD035D4601D5164314
:1004F00000E096432E604D68DEF80060ED0375461F
:1005000001D5164300E096432E60641C0D682A4610
:10051000E5407FF431AFBDE8F88F000008040140EA
:1005200000001110001002400000014000080140CE
:10053000000C014000100140001401400AB10161AB
:1005400070470904FBE7000001488068704700001D
:1005500000000020704770472DE9F0410168044613
:100560004A694E6890F83E000025D743FA050BD43F
:10057000F243D20508D46FF4807201254A612168E4
:100580000A6842F400420A60B90508D4F143C9057B
:1005900005D422686FF4007145F0020551617905B8
:1005A00025D4F143C90522D4638D94F83D10226B04
:1005B000202808D13BB9212910D029290ED028297B
:1005C00001D1212A0AD022686FF48061516145F07F
:1005D0000405102806D0402804D008E0204601F089
:1005E000DFFB04E02068016841F400710160380518
:1005F00008D4F043C00505D421686FF4006045F0CD
:1006000008054861002D07D0206C2843206420464F
:10061000BDE8F04100F0C4BFBDE8F0812DE9F0472E
:10062000026800215368C66A90F83E4090F83D5039
:10063000102C12D0402C10D0046C002C7DD05469AA
:10064000E443A6077AD4DE43B60577D4036C03B13E
:100650009169BDE8F04701F07FBB976951694FF49C
:100660002A0CC9435FEAC1784FF02A4904D0664595
:100670002AD04E4528D010E0DE43B6050DD4C16A1D
:10068000614501D1012103E0C16A494501D1082139
:10069000C162BDE8F04701F0C5BA0E0716D4DE43CB
:1006A000B60513D4416CC9B21161416B09B1896AB5
:1006B00029B9816B002907D0896A002904D0006814
:1006C000416841F400614160BDE8F0878E0706D4BF
:1006D000DE43B60503D4BDE8F04701F0F7B9FE43A9
:1006E000526876074FEA02521DD4002AECDB0A0654
:1006F00008D4DA43520505D4490705D5BDE8F047CB
:1007000001F088B94907DFD4D9438905DCD4212D0C
:1007100005D0402CD8D1BDE8F04701F0C9BABDE8FA
:10072000F04701F035B9002ACEDB4A060BD4DA4394
:10073000520508D4490708D501E00DE00EE0BDE8F8
:10074000F04701F05DB84907BED4D9438905BBD451
:10075000BDE8F04700F0E7BF916970E7E10606D415
:10076000D943890503D4BDE8F04701F061BB2821D6
:10077000212D27D0292D25D0650655D4DD436D05C3
:1007800052D4640752D590F83D30448D002C9BD054
:100790001269446A2270426A521C4262428D521EA1
:1007A0004285428D002A8FD12A2B8DD10268536851
:1007B00023F4806353602222026380F83D1000F02E
:1007C000E7F981E7250623D4DD436D0520D46407CE
:1007D00020D590F83D30448D002CF2D0446A247826
:1007E0001461426A521C4262428D521E4285428D01
:1007F000002AE6D1292BE4D10268536823F48063F0
:1008000053602122026380F83D1000F0C2F95BE7DB
:100810006107D6D4D9438905D3D4418D0029D0D0DE
:10082000416A097811610AE06107CAD4D943890590
:10083000C7D4418D0029C4D01169426A1170416A40
:10084000491C4162418D491E41853DE770470000CA
:1008500070B5040025D094F83D00002520B984F837
:100860003C50204600F054F9242084F83D002068D4
:10087000016821F0010101602068016841F4004134
:1008800001602068016821F40041016000F0B0FAC5
:100890004D4A6168914201D84C4900E04C49884278
:1008A00001D2012070BD4B492368B0FBF1F15E68B5
:1008B00026F03F060E435E606368934206D94FF40C
:1008C000967359434FF47A73B1FBF3F12368491CD3
:1008D0001E6A26F03F06314319626168914210D8C2
:1008E0004900401EB0FBF1F2521CC2F30B02042A75
:1008F00001D2042022E0B0FBF1F0401CC0F30B0059
:100900001CE0A268F2B301EBC10303EB0116431E26
:10091000B3FBF6F35B1C43F480431B0549D092B351
:1009200001EBC10202EB0111401EB0FBF1F0401CD3
:10093000C0F30B0040F4804040F400402168CA69D5
:100940004CF6FF739A431043C861D4E90710014382
:100950002068026822F0C00211430160D4E903015B
:1009600001432068826848F2FF339A431143816053
:10097000D4E9050108432168CA6822F0FF02104348
:10098000C86001E00EE016E02068016841F0010156
:1009900001602564202084F83D00256384F83E50E2
:1009A000002070BD01EB4106431EB3FBF6F35B1C58
:1009B000B3E70120C2E701EB4101401EB0FBF1F0BB
:1009C000401CC0F30B00B7E7A086010080841E0026
:1009D00000093D0040420F0070477047704700001B
:1009E0002DE9F84F1F4690468A460446DDF82890C8
:1009F000FFF7AAFD054694F83D0020287FD1192372
:100A0000012240492046009501F0ECFA002876D1F9
:100A100094F83C00012872D0012084F83C00206842
:100A20000168C90703D1016841F001010160206834
:100A3000016821F400610160212084F83D0010204C
:100A400084F83E0000262664C4F824806785608D03
:100A500020852D48E0622B464A465146204600F04C
:100A600049FF90B9206841698069009036E02A46C4
:100A70004946204601F05CFB50B1206C042804D1AB
:100A80002068016841F4007101600120BDE8F88F21
:100A9000606A216800780861606A401C6062618D4C
:100AA000491E6185218D491E89B2218522685369BD
:100AB000DB435B070BD451B100781061606A401CC6
:100AC0006062608D401E6085208D401E20852A4614
:100AD0004946204601F05AFA0028CED1208D002840
:100AE000C5D154F83D0B016841F40071016020202C
:100AF00004F81E09E67766770020C7E7FFE70220C3
:100B0000C4E70000020010000000FFFF70477047BC
:100B100010B586B000210091019102910391006807
:100B2000184988422BD1184CA06940F00800A061F8
:100B3000A069694600F0080004904FF440600090FE
:100B400012200190032003901048FFF707FCE06992
:100B500040F48000E061E069002200F4800004902D
:100B60001146212000F07CF8212000F06BF80022D3
:100B70001146222000F074F8222000F063F806B03D
:100B800010BD00000058004000100240000C014061
:100B9000704770470248816802781144816070474D
:100BA00000000020074810B5016841F01001016005
:100BB000032000F075F80F2000F006F800F024F88C
:100BC000002010BD0020024070B50D4D04464FF4CA
:100BD0007A712878B1FBF0F00A490968B1FBF0F0AE
:100BE00000F0CCFA48B9102C07D200222146501E42
:100BF00000F036F800206C6070BD012070BD000070
:100C0000000000200C0000200C4808B5816941F06C
:100C100001018161816901F001010091C16941F027
:100C20008051C161C06900F0805000900448416863
:100C300021F0E06141F00071416008BD0010024008
:100C400000000140002809DB00F01F020121914053
:100C50004009800000F1E020C0F80011704700005A
:100C6000F0B40E4B1B680C46C3F30223C3F1070517
:100C7000042D00D90425191D072901D2002300E005
:100C8000DB1E012606FA05F1491E214099409E40CF
:100C9000761E16403143F0BC01F0B8BB0CED00E00D
:100CA000064900F0070208684FF6FF03184040EAC3
:100CB0000220034A10430860704700000CED00E07A
:100CC0000000FA052DE9F0470F46050061D0434EBC
:100CD000306800F00700B84209D2306820F0070001
:100CE00038433060306800F00700B84251D12868BE
:100CF0003B4C810712D5400703D5606840F4E060A3
:100D000060602878000703D5606840F46050606038
:100D10006068A96820F0F000084360602878C00788
:100D200028D06868012810D02168022810D08907CF
:100D300000292EDA616821F0030101436160FFF7A9
:100D400003FC804641F288390DE021688903EFE712
:100D50008901EDE7FFF7F8FBA0EB0801494502D94F
:100D60000320BDE8F0876068696800F00C00B0EB14
:100D7000810FEFD1306800F00700B8420BD930681E
:100D800020F0070038433060306800F00700B842B8
:100D900001D00120E5E72878400705D56068E968BB
:100DA00020F4E060084360602878000706D560689A
:100DB000296920F4605040EAC100606000F028F822
:100DC0006168084AC1F30311515CC84006490860D4
:100DD00006480068FFF7F8FE0020C2E70020024046
:100DE00000100240262600080C000020040000200D
:100DF0000448054900684968044AC1F30221515C6E
:100E0000C84070470C000020001002403626000841
:100E10000E4A51680E4801F00C03042B11D0082B28
:100E20000FD10C48C1F38343C903C05C0AD5516894
:100E3000084AC1F34041921E515C054A5043B0FB41
:100E4000F1F0704704494843704700000010024029
:100E500000127A001626000800093D002DE9F84F1F
:100E6000040070D02078C04DC00749D06868C0F336
:100E70008100012807D06868C0F38100022809D1E9
:100E80006868C00306D52868800339D560680028E3
:100E9000E7D035E06068B0F5803F0BD010B1B0F519
:100EA000A02F11D0286820F480302860286820F412
:100EB000802002E0286840F480302860606890B1AB
:100EC000FFF742FB06460AE0286840F480202860CD
:100ED000F0E700BFFFF738FB801B642873D8286851
:100EE0008003F7D50CE0FFF72FFB064605E000BFB7
:100EF000FFF72AFB801B6428F0D828688003F7D40A
:100F000020789A4E80074FF001094FF0000839D53C
:100F1000686810F00C0F07D06868C0F381000228E1
:100F200009D16868C00306D42868800714D52069F1
:100F3000012808D110E02069B0B1C6F80090FFF791
:100F400003FB074605E00AE1FFF7FEFAC01B022893
:100F5000C4D828688007F7D52868616920F0F800B0
:100F600040EAC10028600DE0C6F80080FFF7ECFA07
:100F7000074604E0FFF7E8FAC01B022823D82868D8
:100F80008007F7D4207800072CD57948A169D9B11A
:100F9000C0F80090FFF7D8FA074604E0FFF7D4FA4C
:100FA000C01B02280FD8686A8007F7D571484FF434
:100FB000FA510068B0FBF1F0009000BF0098411EAC
:100FC0000091FAD20EE080E0C0F80080FFF7BCFA92
:100FD000074604E0FFF7B8FAC01B022875D8686A14
:100FE0008007F7D42078400760D5E8690027C00063
:100FF00008D4E86940F08050E861E869012700F012
:10100000805000905C480168C90513D4016883468C
:1010100041F480710160FFF797FA824606E000BF55
:10102000FFF792FAA0EB0A0064284ED8DBF8000024
:10103000C005F5D5E06801280AD008B1052813D00D
:10104000286A20F001002862286A20F0040002E0EB
:10105000286A40F001002862E06841F2883B98B1BC
:10106000FFF772FA82460BE0286A40F0040028621B
:10107000EEE700BFFFF768FAA0EB0A0159455AD81E
:10108000286A8007F6D50CE0FFF75EFA824605E095
:10109000FFF75AFAA0EB0A0159454CD8286A800795
:1010A000F6D41FB1E86920F08050E861E06988B3A8
:1010B0006968C1F38101022944D00228C6F8608022
:1010C00004D0FFF741FA044638E034E0FFF73CFA79
:1010D000074604E0FFF738FAC01B02282BD828681F
:1010E0008001F7D4206AB0F5803F05D16868A16817
:1010F00020F4003008436860D4E9080108436968B7
:1011000021F4741108436860C6F86090FFF71CFA78
:10111000044606E025E000BFFFF716FA001B022890
:1011200009D828688001F7D51BE000BFFFF70CFA4B
:10113000001B022802D90320BDE8F88F286880012F
:10114000F4D40EE00128F7D06868226A00F48031F8
:10115000914204D1616A00F47010884201D00120EC
:10116000EAE70020E8E700000010024000004242E9
:10117000800442420C0000200070004010B5401E68
:10118000B0F1807F01D3012010BD4FF0E0246061F9
:101190000F21601701F03AF90020A06107202061BB
:1011A000002010BD7047704770B590F83C20012AB0
:1011B00026D0012480F83C40022280F83D200368BC
:1011C0005A689D6822F070060A6832435A600D4BD7
:1011D00002689A4208D0B2F1804F05D00A4B9A4279
:1011E00002D00A4B9A4204D1496825F08003194382
:1011F000916080F83D40002180F83C10084670BDA9
:10120000022070BD002C0140000400400008004096
:1012100010B5040003D094F83D0010B107E00120A0
:1012200010BD002084F83C00204600F01FF802208A
:1012300084F83D00211D206801F076F8012084F833
:10124000460084F83E0084F83F0084F8400084F8AB
:10125000410084F8420084F8430084F8440084F894
:10126000450084F83D00002010BD000008B500686E
:10127000B0F1804F12D10A48C16941F00101C1614A
:10128000C069002200F00100009011461C20FFF709
:10129000E7FCBDE808401C20FFF7D4BC08BD0000F7
:1012A0000010024070B5044690F83C00002501286B
:1012B00017D0012684F83C60022084F83D002068A5
:1012C000826822F0770222F47F4282600868502808
:1012D00038D00DDC20284FD005DC90B3102811D178
:1012E0004AE0022070BD302846D040280AD13BE0B9
:1012F00060282FD070280DD0B0F5805F03D0B0F5F6
:10130000005F12D0012584F83D60002084F83C0085
:10131000284670BDCB68D1E90121206801F040F872
:101320002068816841F0770109E0CB68D1E90121AB
:10133000206801F035F82068816841F480418160BF
:10134000E1E719E0CA684968206801F03BF85021DC
:10135000206806E0CA684968206801F044F8602106
:10136000206801F027F8CEE7CA684968206801F0D4
:1013700029F840212068F4E7226801461046F0E78A
:1013800070472DE9F04104460068C66805694FF0D2
:101390000007A90713D5B10711D5F91E0161012076
:1013A0002077206880698007204602D0FFF7E8FF99
:1013B00004E000F07EF8204600F07CF8277768070C
:1013C00016D5700714D521686FF00400086102205B
:1013D00020772068806910F4407F204602D0FFF714
:1013E000CFFF04E000F065F8204600F063F82777AF
:1013F000280715D5300713D521686FF0080008615C
:10140000042020772068C0698007204602D0FFF7BB
:10141000B7FF04E000F04DF8204600F04BF82777C6
:10142000E80616D5F00614D521686FF010000861A3
:10143000082020772068C06910F4407F204602D041
:10144000FFF79EFF04E000F034F8204600F032F889
:101450002777E80708D0F00706D021686FF0010071
:101460000861204600F027F8280608D5300606D582
:1014700021686FF0800008612046FFF793FE680640
:1014800008D5700606D521686FF040000861204637
:1014900000F012F8A8060AD5B00608D521686FF04A
:1014A000200008612046BDE8F041FFF77CBEBDE8A2
:1014B000F0817047704770477047FEE70148FFF7BB
:1014C0004BB80000140000200148FFF7A7B8000047
:1014D0001400002038B5406A002190F83D202B4BC5
:1014E00046F2A8141B68B3FBF4F3C3EBC30303EB8E
:1014F000830300933BB15B1E009303681B689B054D
:1015000005D5009BF6E7036C43F020030364436BAF
:1015100003B19962836B03B1996203681C6824F478
:1015200080641C604185436B03B15963836B03B1D5
:10153000596303681C6824F001041C6090F83D4066
:101540002023602C0BD0282434EA02020FD080F82C
:101550003D3080F83E1000BFFFF778F938BD80F8C5
:101560003D3080F83E100164FEF7F4FF38BD02689C
:10157000136843F0010313600268136843F4806347
:101580001360016380F83D40E6E700000C00002096
:1015900000684169C943090601D40021016170470F
:1015A00070B5044690F83D0094F83E10102901D023
:1015B000402906D1222804D121680A6822F4006259
:1015C0000A60282131EA00024FF000054FF02006A2
:1015D00026D021684968090505D4602803D084F81D
:1015E0003D6084F83E50256320684168090537D581
:1015F000416821F400614160606B90F821203C4912
:10160000012A11D04163606BFEF746FE38B32068B3
:10161000016821F00101016084F83D60606B1CE00D
:10162000256384F83D10DFE7A06B4163A06BFEF7F4
:1016300033FEA0B120684169C943490605D4006959
:10164000616A0870606A401C60622068016821F06D
:101650000101016084F83D60A06B416B884710E098
:1016600094F83D10602910D04169C943490605D45A
:101670000069616A0870606A401C60622046FFF77A
:10168000E5F8206CC1071CD115E084F83D602564A5
:101690004169C943490605D40069616A0870606AF6
:1016A000401C60622068016821F001010160204651
:1016B000FEF750FFE5E7810703D4410701D4000797
:1016C00004D52068416821F4E061416094F83D0050
:1016D000216C49070BD5282809D10648E06225630B
:1016E00084F83D6084F83E502046FFF775F970BDE0
:1016F000D51400080000FFFF01684A69D243520573
:101700000FD46FF480624A61002140F8301F20221C
:1017100042738173026942F0040202610173012085
:1017200070470020704710B5C26A438D0168042BD2
:1017300006D0438D032B08D0438D022B1DD012E021
:101740004A6822F480624A600CE04B6823F48063AC
:101750004B60042A06D0022A04D001680A6822F4E9
:1017600080620A6001680969426A1170416A491C15
:101770004162418D491E418510BD012A34D0102A95
:1017800032D0042A34D0022A32D00B6843F40073DA
:101790000B6001680969436A1970416A491C41621A
:1017A000438D5B1E438503681B690B70416A491CAE
:1017B0004162418D491E418501684B6823F44073A5
:1017C0004B60202180F83D1090F83E300021402BE6
:1017D00080F83E1010D0082A02D0202A00D0122112
:1017E0000163FFF7FAF810BD0B6823F48063CFE7BD
:1017F0000B6843F48063CBE70163FFF787F910BD03
:1018000038B590F83D10222910D1C36A418D0329C3
:101810000DD901680969426A1170416A491C416227
:10182000418D491E4185418D032906D038BDC26ACC
:10183000022A02D0012906D029B10068416821F4AA
:101840008061416038BD2A4A46F2A814002112681E
:10185000B2FBF4F202EB8202009202682024009DA7
:101860006D1E009526D01568AD05F8D4156825F4D1
:10187000806515600268556825F4E065556002686A
:101880001269456A2A70426A521C4262428D521E97
:10189000428580F83D4090F83E2080F83E10402A76
:1018A00021D0082B02D0202B00D012210163FFF79A
:1018B00094F838BD036C43F020030364536823F4A9
:1018C000E063536002681269436A1A70426A521CEC
:1018D0004262428D521E428580F83D4080F83E10A3
:1018E000FEF7B4FF38BD0163FFF710F938BD000003
:1018F0000C000020F8B50446C06A1E460D46174687
:10190000082807D0012805D010F5803F02D0206BB1
:10191000122804D12068016841F4807101601346E7
:1019200000224FF001112046009600F05BFB40B111
:1019300020680068C00502D54FF4007020640320C1
:10194000F8BD2069B0F5804F0ED00620216800EA6E
:10195000D51040F0F000086133463A460B49204666
:1019600000F088FB78B902E005F0FE0000E0E8B284
:1019700021680861054933463A46891F204600F030
:1019800079FB0028DCD00120F8BD00000800010030
:1019900010B5C26A90F83D1021290BD1418D51B18B
:1019A000416A026809781161416A491C4162418DAE
:1019B000491E418510BD20230021082A13D0202A6A
:1019C00011D012F5803F0ED00268546824F4E06410
:1019D00054601122026380F83E1080F83D3000BF51
:1019E000FEF7FCFF10BD0268546824F4E064546004
:1019F0000268146844F400741460016380F83D3098
:101A000090F83E2080F83E10402AE9D1FFF77FF899
:101A100010BD000010B590F83D1090F83E30C26A3D
:101A2000048DB4B1212903D0402B11D122290FD12B
:101A3000418DE1B390F83E10402942D0416A0268DE
:101A400009781161416A491C4162418D491E4185F5
:101A500010BD2129E8D120230021082A13D0202AF3
:101A600011D012F5803F0ED00268546824F4E0646F
:101A700054601122026380F83E1080F83D3000BFB0
:101A8000FEF7ACFF10BD0268546824F4E0645460B3
:101A90000268146844F400741460016380F83D30F7
:101AA00090F83E2080F83E10402AE9D100E002E0A4
:101AB000FFF72DF810BD0068416821F48061416096
:101AC00010BDBDE8104000F0F3B8000078B590F804
:101AD0003E50C26A046B90F83D6000230168222EDC
:101AE00073D1066D0EB9402D6FD0056D1DB9056916
:101AF000B5F5404F1BD0458D95B3468D484D012E11
:101B000020D0448D022C4DD00C6844F480640C60CD
:101B100001684C68240579D5AA4273D0012A71D096
:101B2000082A6FD0102A6DD0202A6BD06EE04A6947
:101B30008A6900920A6842F480720A60016D491C49
:101B4000016578BDAA4214D10A6822F480620A6055
:101B500001684A68120504D50A6822F4806217E019
:101B6000FFE74A698A6900920A6842F400720A60D3
:101B700050E0082A10D0202A0ED0122C0AD0042AB5
:101B800003D0022A01D0102AE6D10A6842F480620A
:101B90000A603BE0012ADFD00A6822F480620A6012
:101BA0000168DEE7042A11D0022A0FD0102A0DD0D6
:101BB0000C6844F400640C6001684C698C69009402
:101BC0000C6824F480640C6008E025E00C6844F4A0
:101BD00080640C6001684C698969009101684C68F7
:101BE000240517D5AA4207D0012A05D0082A03D018
:101BF000102A01D0202A0DD14A6842F480524A604E
:101C000008E0FFE74A6842F480524A6001684A6986
:101C100089690091036578BD48698869009078BD3D
:101C20000000FFFF90F83E10402910D00169B1F587
:101C3000804F19D0016DA9B3016D012910D1416CFC
:101C40005FF0F10201F4407142EAD11106E0016D4A
:101C50000029416C05D0C9B241F001010068016161
:101C6000704701F0FE01F9E790F83D102129416C21
:101C700009D0C9B241F0010102681161416B29B17B
:101C8000896A49B902E001F0FE01F5E7816B00299C
:101C9000E6D0896A0029E3D00068416841F4006118
:101CA00041607047FFE7416CF02201F44071CBE7DF
:101CB00010B590F83D10026D4AB1026D012A14D0A2
:101CC000026D022A16D0BDE81040FFF761BCC16C5E
:101CD0000129816C02D0C1F3072108E00268C9B272
:101CE0001161016D891C016510BD816CC9B202686A
:101CF000116123E022291CD0428D0AB1212920D074
:101D0000428D002AF0D12129EED101684A6822F4DF
:101D1000E0624A6001680A6842F400720A600021C9
:101D20000163202280F83D2080F83E10FEF7EFFE90
:101D300010BD01680A6842F480720A60016D491C96
:101D4000D1E7416A026809781161416A491C416220
:101D5000418D491E418510BD38B50C4690F83D2097
:101D600000212825954302680B4605D051699169E9
:101D7000009180F83C3038BD556825F48065556089
:101D8000E243540700D50121120601D5828900E003
:101D9000028B80F83C3092B2FEF7DDFB38BD0000CC
:101DA0002DE9F04190F83D300446C26A002120261A
:101DB0001E4F00686FF48065082A01D0202A01D1E7
:101DC000282B04D0212B17D04561BDE8F081E762B4
:101DD000426822F4E062426020684561206802683F
:101DE00022F480620260216384F83D6084F83E1032
:101DF0002046FEF7F1FDE8E7E7622122226384F83E
:101E00003D6084F83E10416821F4E0614160206843
:101E100045612068016821F4806101602046FFF778
:101E2000B7FB2046FEF7B5FECFE700000000FFFF3E
:101E3000F8B590F83D6004460068416821F4E0611F
:101E400041602068002541690091016841F001016D
:101E500001602068016821F48061016020684168A8
:101E6000090520D5474F222E48D02A2E46D0616B37
:101E7000096849686185618D19B1216C41F00401DF
:101E80002164416821F400614160606BFEF750FA03
:101E9000012808D0606B4763606BFEF7FDF910B155
:101EA000606B416B8847608D08B320684169C94306
:101EB000490708D40069616A0870606A401C606262
:101EC000608D401E608520684169C943490608D479
:101ED0000069616A0870606A401C6062608D401E23
:101EE0006085608D18B1206C40F004002064206C87
:101EF00000B32046BDE8F840FFF752BBA16B09686C
:101F000049686185618D19B1216C41F0040121643A
:101F1000416821F400614160A06BFEF709FA0128D5
:101F2000C1D0A06B4763A06BFEF7B6F90028BAD00A
:101F3000A06BB6E72A2E06D12563282084F83D0041
:101F40002046FEF725FE94F83D10202028290DD0CC
:101F5000216B222901D0222E07D1256384F83D0070
:101F600084F83E502046FEF713FEF8BD0649E162B4
:101F7000256384F83D0084F83E502046FEF72CFD92
:101F8000F8BD0000D51400080000FFFF70B516462C
:101F90000D4604461EE02046FFF7AEFB08B10120C7
:101FA00070BD681C16D0FEF7CFFA801BA84200D87F
:101FB00085B920684069C04340070BD5002044F82C
:101FC000300F20216173A073216941F0200121614C
:101FD0002073E4E720684069C0434007DBD4002059
:101FE00070BD00002DE9F047984617460D4604469F
:101FF000C1F30746DDF820902AE000BFB8F1FF3FAB
:1020000026D0FEF7A1FAA0EB0901414502D8B8F1AC
:10201000000F1DD12068012E16D0806925EA00002E
:102020000004000C12D00020B84211D1002044F866
:10203000300F20216173A073216941F020012161DB
:1020400020730120BDE8F0874069E7E70120EBE756
:102050002068012E0AD0806925EA00000004000CE7
:1020600006D00020B842C9D00020EBE74069F3E772
:102070000120F7E72DE9F047984616460D4604463D
:102080004FF000094FF0200AC1F3074723E0206812
:102090004069C043400515D42068016841F40071CF
:1020A000016021686FF480604861C4F8309084F862
:1020B0003DA084F83E90216C41F00401216484F835
:1020C0003C9021E0701C06D0FEF73EFAA0EB080021
:1020D000B04203D816B1012F1FD021E02068012F94
:1020E00015D0806925EA00000004000C18D000BF5C
:1020F00044F8309F84F80DA084F80E90216941F0D7
:102100002001216184F80C900120BDE8F08740692E
:1021100025EA00000004000CEAD12068406901E0D3
:102120002068806925EA00000004000CAFD1ECE7CC
:1021300070B516460D4604461EE02046FFF7DCFA51
:1021400008B1012070BD681C16D0FEF7FDF9801B98
:10215000A84200D885B920684069C04300060BD565
:10216000002044F8300F20216173A073216941F0F1
:10217000200121612073E4E720684069C043000624
:10218000DBD4002070BD000070B586B000241C4870
:102190000094019402940394816941F010018161DB
:1021A000816901F010010491816941F02001816190
:1021B000816901F020010491816941F00801816188
:1021C000816901F008010491816941F00401816194
:1021D00080690C4E00F004004FF40055049000227A
:1021E00029463046FEF7AAF901200095CDE9010401
:1021F0000220039069463046FEF7B0F806B070BD85
:1022000000100240001001400D4810B50B4901605C
:102210000C49416000214FF480428160C0E9031203
:1022200041618161C1610162FEF712FB002803D0A8
:10223000BDE81040FEF72DB810BD0000005800406A
:1022400014000020801A060010B586B0002417483C
:10225000009401940294039404944FF080410594F7
:10226000016040F2CF21C0E9011442F21071C0E9CF
:1022700003148461FEF7CCFF08B1FEF70AF84FF4AF
:102280008050009069460948FFF70CF808B1FEF746
:1022900000F8049404A905480594FEF785FF00287A
:1022A00001D0FDF7F6FF06B010BD00006800002069
:1022B000FEE7FEE770477047FEF76CBC30B58FB0A5
:1022C00028216846FDF780FF14210AA8FDF77CFF4E
:1022D00001210804CDE90010002402940225049194
:1022E000CDE907504FF4E01009906846FEF7B6FDBF
:1022F00008B172B6FEE70F20CDE90A054FF4806001
:10230000CDE90C4002210AA80E94FEF7DBFC002860
:1023100001D072B6FEE70FB030BD70470148FFF73D
:1023200030B8000068000020F0B50268194B1A4C64
:102330001A4D4FF08047984205D0B84203D0A042D2
:1023400001D0A84203D122F070064A683243984275
:1023500005D0B84203D0A04201D0A84203D122F454
:102360004074CA6822434C6922F080022243026012
:102370008A68C2620A688262984201D1096901636F
:10238000012141610169C90703D0016921F00101FF
:102390000161F0BD002C0140000400400008004035
:1023A00010B5846842EA032224F47F440A4322439E
:1023B000826010BD826822F070020A4342F0070179
:1023C0008160704710B5036A046A24F00104046256
:1023D000846924F0F00444EA021423F00A020A4358
:1023E0008461026210BD10B5036A046A24F010040F
:1023F0000462846923F0A00324F4704444EA0232A6
:1024000043EA01118261016210BDFEE70907090E6E
:10241000002804DB00F1E02080F80014704700F091
:102420000F0000F1E02080F8141D704702490128D8
:1024300000D00020087070471000002010B5012067
:1024400000F005F8BDE810400220FDF775BF70B53B
:102450000446000904F00F05002100F069F800218E
:10246000284600F065F8012C01D0022C04D1BDE80B
:1024700070400220FDF760BF70BD70B504460009D2
:1024800004F00F05012100F053F80121284600F067
:102490004FF8012C01D0022C04D1BDE8704002207D
:1024A000FDF74ABF70BD012801D0022801D00020ED
:1024B00000E040200844401EC0B240F08000FFF71A
:1024C000C6BF10B53220FDF737FF0320FFF7BFFF6F
:1024D0000220FDF731FF0320FFF7B9FF0220FDF7CF
:1024E0002BFF0320FFF7B3FF0220FDF725FF02209B
:1024F000FFF7ADFF0220FDF71FFF2820FFF7A7FF22
:102500000C20FFF7A4FF0620FFF7A1FF0120FFF733
:102510009EFFBDE810400220FDF70EBF10B5044637
:1025200002E0641CFFF7A9FF20780028F9D110BD54
:102530001CB541EA0010104964240123097801AA5E
:1025400040EAC10040F004008DF804004E210B4821
:102550000094FEF745FA0120FDF7EEFE9DF8040019
:10256000012320F004008DF8040001AA4E21034845
:102570000094FEF735FA1CBD100000201400002066
:10258000FEF710FBFFF79AFEFFF7FEFDFFF73CFE9C
:10259000FFF75AFE1A4E4FF4005515A400222946A3
:1025A0003046FDF7CBFFFFF78CFF0120FFF73EFF22
:1025B00001210220FFF777FF2046FFF7AFFF01223E
:1025C00029463046FDF7BAFF41F28830FDF7B4FEE8
:1025D0004FF47A74FFF732FF01210220FFF763FF07
:1025E00008A0FFF79BFF2046FDF7A6FEF2E70000DC
:1025F000456D6265646465645468657265000000D9
:102600000010014044756F6E67205875616E204E52
:10261000676F6300010202030405060708090A0B3D
:102620000C0D0E0F10100000000000000000010251
:10263000030406070809000000000102030400006B
:102640006026000800000020140000002801000897
:102650007426000814000020FC0600004401000855
:1026600001000000100000000000000000127A00CD
:042670000100000065
:04000005080000ED02
:00000001FF
